:1000000071C0000086C0000084C0000082C00000F3
:1000100080C000007EC000007CC000007AC00000EC
:1000200078C0000076C0000074C0000072C00000FC
:1000300070C000006EC000006CC000006AC000000C
:1000400068C0000093C0000064C0000062C00000EF
:1000500060C000005EC000005CC000005AC000002C
:1000600058C0000056C0000054C0000052C000003C
:1000700050C000004EC000004CC000004AC000004C
:1000800048C0000046C0000044C0000042C000005C
:1000900040C000003EC000003CC000003AC000006C
:1000A00038C0000036C0000034C0000032C000007C
:1000B00030C000002EC000002CC000002AC000008C
:1000C00028C0000026C0000024C0000022C000009C
:1000D00020C000001EC000001CC000001AC00000AC
:1000E00018C0000011241FBECFEFD1E2DEBFCDBF8C
:1000F00000E00CBF12E0A0E0B2E0EEE8F1E000E0CA
:100100000BBF02C007900D92A030B107D9F702D003
:100110003CC076CFF8941092800088E080938100F4
:1001200010928200109285001092840083E294EF76
:10013000909389008093880010928B0010928A001F
:1001400010928D0010928C00109287001092860001
:1001500082E080936F0016BA809181008460809362
:100160008100789480E884B92F9AFFCF1F920F9274
:100170000FB60F9211248F9385B1805885B98F9156
:0E0180000F900FBE0F901F901895F894FFCFB0
:00000001FF
